:02092100C10013
:05091C0012090380FE3A
:10090300758920758DFDD28ED28C75985075A898F7
:0909130075A001E4F509F50822C4
:03001B000208D9FF
:1008D900C0E0C0D020000DD20075A001E50945088F
:1008E900F590800FC20075A000759000C374FF9544
:0A08F90080F58CC28DD0D0D0E03223
:0300230002088C44
:07088C00C0D075D000C007C9
:1008930075A800AF997599743099FDC299BF351049
:1008A3007509017508047599413099FDC299801C39
:1008B300BF41057509028006BF390875090175082E
:1008C300088009BF3606750902750801C29875A824
:0108D300988C
:0508D400D007D0D03276
:03000000020800F3
:0C080000787FE4F6D8FD758120020847DF
:10080C0002091CE493A3F8E493A34003F68001F2DD
:10081C0008DFF48029E493A3F85407240CC8C333ED
:10082C00C4540F4420C8834004F456800146F6DFBC
:10083C00E4800B0102040810204080900921E47E22
:10084C00019360BCA3FF543F30E509541FFEE493B1
:10085C00A360010ECF54C025E060A840B8E493A378
:10086C00FAE493A3F8E493A3C8C582C8CAC583CAA3
:10087C00F0A3C8C582C8CAC583CADFE9DEE780BE5B
:0109230000D3
:00000001FF
