:0208E000C10055
:0808D8001208C91208B980FBE7
:0F08C900758901D2AFD2ACD2ABD28E75A001220D
:1008B900E4F58A758CA6D28C308DFDC28CC28D224E
:03001B0002088C4C
:10088C00C0E0C0D0200010D20075A001E5094508D9
:10089C00F59085808D800FC20075A000759000C307
:0D08AC0074FF9580F58DC28FD0D0D0E03262
:030023000208E3ED
:0108E30032E2
:03000000020800F3
:0C080000787FE4F6D8FD758120020847DF
:10080C000208D8E493A3F8E493A34003F68001F222
:10081C0008DFF48029E493A3F85407240CC8C333ED
:10082C00C4540F4420C8834004F456800146F6DFBC
:10083C00E4800B01020408102040809008E0E47E64
:10084C00019360BCA3FF543F30E509541FFEE493B1
:10085C00A360010ECF54C025E060A840B8E493A378
:10086C00FAE493A3F8E493A3C8C582C8CAC583CAA3
:10087C00F0A3C8C582C8CAC583CADFE9DEE780BE5B
:0108E2000015
:00000001FF
