:02099F00C10095
:10095F0012097D7F731209977F741209977F6112B5
:0E096F0009977F721209977F7412099780FE14
:10097D00758920758DFDD28ED28C75985075A8987D
:0A098D0075A001750902750801222A
:03001B00020935A2
:10093500C0E0C0D020000DD20075A001E509450832
:10094500F590800FC20075A000759000C374FF95E7
:0A09550080F58CC28DD0D0D0E032C6
:03002300020800D0
:10080000C0E0C0F0C083C082C0D075D000C000C0BE
:0D08100001C002C003C004C005C006C0073F
:10081D00C2AC85990AE50AB4350D75A005750901B7
:10082D007508047F358053E50AB40D1A759941306A
:10083D0099FDC2997599433099FDC29975994B30BF
:10084D0099FDC2998037E50AB4410D75A00A750965
:10085D00027508087F418022E50AB4390D75A0099B
:10086D007509017508087F398010E50AB4360E75D3
:10087D00A0067509027508017F36120997C298D234
:01088D00ACBE
:10088E00D007D006D005D004D003D002D001D000BE
:0B089E00D0D0D082D083D0F0D0E03268
:080997008F993099FDC29922ED
:030000000208A94A
:0C08A900787FE4F6D8FD7581200208F08D
:1008B50002095FE493A3F8E493A34003F68001F2F1
:1008C50008DFF48029E493A3F85407240CC8C33344
:1008D500C4540F4420C8834004F456800146F6DF13
:1008E500E4800B010204081020408090099FE47EFB
:1008F500019360BCA3FF543F30E509541FFEE49308
:10090500A360010ECF54C025E060A840B8E493A3CE
:10091500FAE493A3F8E493A3C8C582C8CAC583CAF9
:10092500F0A3C8C582C8CAC583CADFE9DEE780BEB1
:0109A1000055
:00000001FF
