:02092000C10014
:080918001208F412090880FB2B
:1008F400758901D28E75980975A89875A001E4F5DB
:0409040009F50822C7
:10090800E4F58A758CA6D28C308DFDC28CC28D22FE
:03001B000208CA0E
:1008CA00C0E0C0D020000DD20075A001E50945089E
:1008DA00F590800FC20075A000759000C374FF9553
:0A08EA0080F58DC28FD0D0D0E0322F
:0300230002088C44
:07088C00C0D075D000C007C9
:1008930075A8003098FDAF99BF3508750901750833
:1008A30004801CBF41057509028006BF390875091C
:1008B300017508088009BF360675090275080175B8
:0208C300A898F3
:0508C500D007D0D03285
:03000000020800F3
:0C080000787FE4F6D8FD758120020847DF
:10080C00020918E493A3F8E493A34003F68001F2E1
:10081C0008DFF48029E493A3F85407240CC8C333ED
:10082C00C4540F4420C8834004F456800146F6DFBC
:10083C00E4800B0102040810204080900920E47E23
:10084C00019360BCA3FF543F30E509541FFEE493B1
:10085C00A360010ECF54C025E060A840B8E493A378
:10086C00FAE493A3F8E493A3C8C582C8CAC583CAA3
:10087C00F0A3C8C582C8CAC583CADFE9DEE780BE5B
:0109220000D4
:00000001FF
