:0208DD00C10058
:0808D5001208C61208B680FBF0
:0F08C600758901D2AFD2ACD2ABD28E75A0012210
:1008B600E4F58A758CA6D28C308DFDC28CC28D2251
:03001B0002088C4C
:10088C00C0E0C0D020000DD20075A0017590058588
:10089C00808D800FC20075A000759000C374FF9509
:0A08AC0080F58DC28FD0D0D0E0326D
:030023000208E0F0
:0108E00032E5
:03000000020800F3
:0C080000787FE4F6D8FD758120020847DF
:10080C000208D5E493A3F8E493A34003F68001F225
:10081C0008DFF48029E493A3F85407240CC8C333ED
:10082C00C4540F4420C8834004F456800146F6DFBC
:10083C00E4800B01020408102040809008DDE47E67
:10084C00019360BCA3FF543F30E509541FFEE493B1
:10085C00A360010ECF54C025E060A840B8E493A378
:10086C00FAE493A3F8E493A3C8C582C8CAC583CAA3
:10087C00F0A3C8C582C8CAC583CADFE9DEE780BE5B
:0108DF000018
:00000001FF
