:03000000020800F3
:1008000085A09D75C4805391FB75C49DE59130E32F
:10081000FB53C43F787FE4F6D8FD75812002085B66
:0208E900C1004C
:0808E1001208D41208C480FBC8
:0D08D400758901D2AFD2ABD28E7590012292
:1008C400E4F58A758CA6D28C308DFDC28CC28D2243
:03001B000208A038
:1008A000C0E0C0D020000AD20075900185B08C80D5
:1008B0000CC200759000C374FF95B0F58CC28DD04A
:0408C000D0D0E03282
:100820000208E1E493A3F8E493A34003F68001F205
:1008300008DFF48029E493A3F85407240CC8C333D9
:10084000C4540F4420C8834004F456800146F6DFA8
:10085000E4800B01020408102040809008E9E47E47
:10086000019360BCA3FF543F30E509541FFEE4939D
:10087000A360010ECF54C025E060A840B8E493A364
:10088000FAE493A3F8E493A3C8C582C8CAC583CA8F
:10089000F0A3C8C582C8CAC583CADFE9DEE780BE47
:0108EB00000C
:00000001FF
