:03000000020800F3
:1008000085A09D75C4805391FB75C49DE59130E32F
:10081000FB53C43F787FE4F6D8FD75812002085B66
:0208EF00C10046
:0808E7001208DA1208CA80FBB6
:0D08DA00758901D2AFD2ABD28E759001228C
:1008CA00E4F58A758CA6D28C308DFDC28CC28D223D
:03001B000208A038
:1008A000C0E0C0D020000DD20075900175A0058574
:1008B000B08D800FC20075900075A000C374FF95C5
:0A08C000B0F58DC28FD0D0D0E03229
:100820000208E7E493A3F8E493A34003F68001F2FF
:1008300008DFF48029E493A3F85407240CC8C333D9
:10084000C4540F4420C8834004F456800146F6DFA8
:10085000E4800B01020408102040809008EFE47E41
:10086000019360BCA3FF543F30E509541FFEE4939D
:10087000A360010ECF54C025E060A840B8E493A364
:10088000FAE493A3F8E493A3C8C582C8CAC583CA8F
:10089000F0A3C8C582C8CAC583CADFE9DEE780BE47
:0108F1000006
:00000001FF
